:1000000000308A001828000039308400831300086B
:10001000031917280630F800F701F70B0D28F80B25
:100020000C287B30F700F70B1328800B0A280800F8
:10003000840183131F3083051530A0002110FA308E
:10004000A200EA30A4006030A300A801A701A60125
:10005000A5012030AD00EB30AE00FE30B0005C30CA
:10006000AF00B401B3010130B200A430B100831677
:100070001F149F141F159F1107309C008312B50198
:100080008316811300308600831286172208B90078
:0E009000042086132208B900042045286300CE
:02400E00723FFF
:00000001FF
;PIC16F877A
;CRC=C76A  CREATED="11-dic-19 12:44"
