:1000000000308A003F280000F701F8012B08031098
:100010002C18F707F70CF80CAC18F707F70CF80CCE
:100020002C19F707F70CF80CAC19F707F70CF80CBC
:100030002C1AF707F70CF80CAC1AF707F70CF80CAA
:100040002C1BF707F70CF80CAC1BF707F70CF80C98
:100050008A110A1255282B308400831300080319D3
:100060003E280630F800F701F70B3428F80B332848
:100070007B30F700F70B3A28800B31280800840109
:1000800083131F30830583161F149F141F159F11A0
:1000900007309C0005308312A10003302107A30024
:1000A0002108AB002208AC0004287808A40021082D
:1000B0000139A5002208A20AA60021082202031C79
:1000C0006328003064280130A700220821020319A8
:1000D0006B2800306C280130A8002208A1072208F4
:1000E000A107AA012230A9008316811300308600DF
:1000F000831286176430AB002B2086136430AB006C
:060100002B2079286300AA
:02400E00723FFF
:00000001FF
;PIC16F877A
;CRC=339E  CREATED="16-dic-19 15:44"
