:1000000000308A002F28000023308400831300086A
:10001000031917280630F800F701F70B0D28F80B25
:100020000C287B30F700F70B1328800B0A280800F8
:10003000A20122080A3C031C2C2822080139031DB6
:10004000262806176430A30004202A2806136430EB
:10005000A3000420A20A19288A110A124528840143
:1000600083131F30830583161F149F141F159F11C0
:1000700007309C0081130030860002308312A100FB
:100080002108023C031C47281828861740286300D3
:02400E00723FFF
:00000001FF
;PIC16F877A
;CRC=34BE  CREATED="19-dic-19 17:48"
